:100000000C9491070C94AE070C94AE070C944C33EF
:100010000C94AE070C94AE070C94AE070C94AE078C
:100020000C94AE070C94AE070C94D0150C94491E9A
:100030000C94A52A0C94AE070C94AE070C94AE0752
:100040000C94AE070C94AE070C94AE070C94AE075C
:100050000C94AE070C94A9160C94AE070C94AE0742
:100060000C94AE070C94AE070C94AE070C94AE073C
:100070000C94AE070C94AE070C94AE070C94AE072C
:100080000C94AE070C94AE070C94AE070C94AE071C
:100090000C94AE070C94AE070C94AE070C94AE070C
:1000A0000C94AE070C94AE070C94AE07010000054B
:1000B0000105020503050405050500060106020603
:1000C00003060406050600070107020703070407E5
:1000D00005070008010802080308040805080009CC
:1000E00001090209030904090509000001000200D1
:1000F00003000400050000010101020103010401E5
:1001000005010002010202020302040205020003CB
:1001100001030203030304030503000401040204B2
:1001200003040404050400DA0281FFD9F1DB20A4F2
:10013000A62EAF00A0C0D30000A1C8D30000AED54A
:1001400080A81F408D142000643214FD377A585A5D
:10015000000004E6D6B44602002101160000007437
:100160002FE5A3E0062A01DE5D003D8889C65436EE
:10017000C3174FE4E62B87DC532A62B501A1B7C34E
:100180002F747F1164282F10BE2683D380977E5A48
:10019000AAA9E8D946BB18962E5D674987BDEB68CA
:1001A0000895729CDC9EFE154817828B08182C421D
:1001B000D918BBEA4B20AABE75971991DC9BF61A99
:1001C000191F7418F58564B87AB2762CF28103543D
:1001D00064602CEBB4D0A90248BE575FAADFC78089
:1001E00045599C853000AC5974B7CE1C1414EF06E9
:1001F00001FF7A58DC436EEC44E61432A2C00722B9
:100200004D34CA517489AA4E3047AC80F41991BB61
:100210001AB1F522D92BE9FD91AAC2BCE3E8C420AA
:100220004B2DE85D509023926609AD7CA5D17542B7
:10023000753AADC3EBCBFF38746D2A1B0C6BBB104A
:10024000361BCE909F6FB992E3C2EB596C05DB6908
:10025000E128EDEA0657DDCB4B33FFDF814D7B19FB
:100260007EB7845520E6BD6F53AD847792432A193B
:100270008B1C3BD2A295293EF91208BE1EC833E161
:10028000EE79F93CB634C5C559FB7B1D68CFEEBB92
:1002900048ABFC72B68572571A181E974396CF4525
:1002A000BE3579BC1A6E9FE5597F4A454F1D2A1805
:1002B000D5D1E43FBC94B4A0D8934E1064C8653443
:1002C000A8432C2290118E38D58090C9B66F7E300D
:1002D000A3566FA70D4F52D2306FC1C4F19EF237B3
:1002E0008987815534C5FF2EA7537ED4A37588CD49
:1002F000B3E4B6D94892E78A4BF45D56DB2726F380
:10030000D0D4ED7FCBDE7B406CE7EF6DCAA87142A5
:10031000374AAF58D68298C3A287D54E4EB8E65713
:10032000E26AECBE4D3165BDF5F8E6BA3BDC1EA2D3
:1003300035896F5769F70F75C3D6E58872447FB169
:1003400015613349DC0B1412000000DC6B59735E3D
:1003500001D23D0001FA03AB0C000012F38CA3B1F3
:10036000C467FB020000000004595A0001010101AA
:100370000101010101020202020202020202030360
:100380000303030303030404040404040405050530
:1003900005050606060606070707070708080808F2
:1003A000090909090A0A0A0B0B0B0C0C0C0D0D0D9F
:1003B0000E0E0E0F0F0F1010111111121213131435
:1003C00014151516161717181819191A1A1B1B1CAD
:1003D0001D1D1E1E1F202021222223242425262607
:1003E000272829292A2B2C2D2D2E2F30313232333C
:1003F0003435363738393A3B3C3D3E3F4041424345
:100400004445464748494A4C4D4E4F505153545528
:100410005658595A5B5D5E5F616264656668696BD8
:100420006C6D6F7072737577787A7B7D7E80828356
:100430008587888A8C8E8F91939596989A9C9EA09A
:10044000A2A3A5A7A9ABADAFB1B3B5B7BABCBEC0A7
:10045000C2C4C6C9CBCDCFD1D4D6D8DBDDDFE2E470
:10046000E7E9EBEEF0F3F5F8FAFDFF07087F080780
:10047000003E5B4F5B3E003E6B4F6B3E001C3E7C84
:100480003E1C00183C7E3C18001C577D571C001C6D
:100490005E7F5E1C0000183C180000FFE7C3E7FF0A
:1004A00000001824180000FFE7DBE7FF0030483A9F
:1004B000060E00262979292600407F050507004001
:1004C0007F05253F005A3CE73C5A007F3E1C1C0834
:1004D00000081C1C3E7F0014227F2214005F5F0076
:1004E0005F5F0006097F017F00006689956A0060F2
:1004F000606060600094A2FFA2940008047E04087B
:100500000010207E20100008082A1C0800081C2A61
:100510000808001E10101010000C1E0C1E0C0030DD
:10052000383E383000060E3E0E0600000000000087
:100530000000005F000000000700070000147F14A7
:100540007F1400242A7F2A120023130864620036D5
:100550004956205000000807030000001C224100FB
:10056000000041221C00002A1C7F1C2A0008083EB3
:100570000808000080703000000808080808000023
:1005800000606000002010080402003E5149453E12
:100590000000427F4000007249494946002141491C
:1005A0004D33001814127F10002745454539003C93
:1005B0004A49493100412111090700364949493664
:1005C00000464949291E0000001400000000403484
:1005D0000000000008142241001414141414000038
:1005E00041221408000201590906003E415D594E9E
:1005F000007C1211127C007F49494936003E41417E
:100600004122007F4141413E007F49494941007FED
:1006100009090901003E41415173007F0808087F24
:100620000000417F4100002040413F01007F08144D
:100630002241007F40404040007F021C027F007F3B
:100640000408107F003E4141413E007F0909090630
:10065000003E4151215E007F091929460026494983
:1006600049320003017F0103003F4040403F001F2B
:100670002040201F003F4038403F006314081463AF
:10068000000304780403006159494D4300007F4191
:10069000414100020408102000004141417F000454
:1006A00002010204004040404040000003070800EF
:1006B000002054547840007F284444380038444493
:1006C000442800384444287F00385454541800000B
:1006D000087E09020018A4A49C78007F080404780E
:1006E0000000447D4000002040403D00007F102875
:1006F00044000000417F4000007C04780478007CC6
:100700000804047800384444443800FC18242418B1
:100710000018242418FC007C0804040800485454E1
:1007200054240004043F4424003C4040207C001C2E
:100730002040201C003C4030403C0044281028440D
:10074000004C9090907C004464544C440000083667
:100750004100000000770000000041360800000260
:1007600001020402003C2623263C00000000000099
:1007700000404040F0F8F8FF38FFF8F83FF8F8FF85
:1007800038FFF8F8F040404000000000000080C052
:10079000C0C0800000C0C08000000080C0C000C099
:1007A000C0000080C0C00000000000C0C0C0C0C0C9
:1007B00000C0C000000000000000000000000000B9
:1007C0000000000000000000000000000000000029
:1007D0000000000000000000000000000000000019
:1007E00000000000000000000000C0F0F8FC3E1E09
:1007F00006010000007F4141417F007F4141417F70
:10080000000080C0E07E5B4F5BFEC00000C000DCEB
:10081000D7DEDEDED7DC00C00000000000000000F4
:1008200000000000000000000000000000000000C8
:1008300000494949FFFFFFFFE0DFBFBF00BFBFDF47
:10084000E0FFFFFFFF49494900000000001F3F6033
:1008500060E0BF1F007F7F071E381E077F7F007F7D
:100860007F0E1F3B716000000000007F7F0C0C0CAE
:10087000007E7E007F7E0303007F7E03037E7E0377
:10088000037F7E000F3E703C063C703E0F00327BC3
:1008900049493F7E007F7E0303001E3F69696F2642
:1008A00000000000000000000000030F1F3F3C7824
:1008B00070600000007F4141417F007F4141417FE6
:1008C00000307B7F7830202030787F3B0003000FA2
:1008D0007F0F0F0F7F0F00030000000000000000DB
:1008E0000000000000000000000000000000000008
:1008F00000010101070F0F7F0F7F0F0F7E0F0F7F8A
:100900000F7F0F0F07010101000000000000000031
:1009100000000101000000000000000000000000D5
:1009200000000000000000000000000000000000C7
:1009300000000000000000000000000000000000B7
:1009400000000000000000000000000000000000A7
:100950000000000000000000000000000000000097
:100960000000000000000000000000000000000087
:100970000000000000000000000000000000000077
:100980000000000000000000000000000000000067
:100990000000000000000000000000000000000057
:1009A000000000000000000000000000AF00AE43A7
:1009B00050534C4B000A0A00556E646566004C6F3C
:1009C00077657200526169736500426173650A0060
:1009D0004C41594552000A0A004D6F640A00436CAD
:1009E0006D6B0051777274000A0A0000000000006D
:1009F00000000000000000000000000000000000F7
:100A000000000000000000000000000000000000E6
:100A1000000000FCFEE6C38301031F1E1C00000053
:100A20000000000000000000000000000000E0F0F6
:100A30007C1E06030F0FCEFCFC3C040000000000EF
:100A400000000000000000000000000000000000A6
:100A50000000000000000000000000000000000096
:100A60000000000000000000000000000000000086
:100A70000000000000000000000000000000000076
:100A8000000000000000000000E0F038181C1C1CF2
:100A90001C98F8F0010307FFFEFC30000080E0F036
:100AA00070101818F0F0E00000101090F8FF7F1799
:100AB00010100000E0FEFF0F01000080E0F0301099
:100AC00098F8F0E0000000000000000000000000C6
:100AD0000000000000000000000000000000000016
:100AE0000000000000000000000000000000000006
:100AF00000000000000000000000000000000000F6
:100B000000000000000000000003070C081818187F
:100B1000191919080C0C06070301000000070F0F34
:100B20001C18080C0F0701C0C0C0F87F1F07000089
:100B3000000000060F0F0C06020000070F0F1F0B2E
:100B40000D0D070000000000000000000000000084
:100B50000000000000000000000000000000000095
:100B60000000000000000000000000000000000085
:100B70000000000000000000000000000000000075
:100B80000000000000000000000000000000007EE7
:100B90000F00D4FFFFFFC700000078000000000036
:100BA0000000002A2B2800000000000000000000C8
:100BB00000000000000029000000002C1E3420214D
:100BC0002224342627252E362D3738271E1F202194
:100BD00022232425263333362E37381F04050607F3
:100BE00008090A0B0C0D0E0F10111213141516170D
:100BF00018191A1B1C1D2F3130232D35040506072B
:100C000008090A0B0C0D0E0F1011121314151617EC
:100C100018191A1B1C1D2F3130354C2200210020C1
:100C2000001F001E0035001700150008001A0014F0
:100C30000029000A0009000700160004002B000527
:100C400000190006001B001D00E100A8002C002276
:100C500052E000E200E300230024002500260027E4
:100C60000035001C0018000C00120013002A000BB5
:100C7000000D000E000F003300340011001000368C
:100C80000037003800E500000028002352E400E2AD
:100C900000E7002200210020001F001E0035000A8E
:100CA00000130009001A001400290007001700169D
:100CB00000150004002B000500190006001B001D94
:100CC00000E100A8002C000100E000E200E30023A6
:100CD00000240025002600270035000D000F001815
:100CE000001C0033002A000B00110008000C001249
:100CF0000034000E001000360037003800E5000018
:100D00000028000100E400E600E7003E003D003C52
:100D1000003B003A0001002200210020001F001EBD
:100D20000035002202210220021F021E02010030B3
:100D3000022F022E022D002E0001000100010001F1
:100D4000000100010001003F00400041004200435B
:100D5000004400230024002500260027004500232E
:100D600002240225022602270231022F003000331E
:100D70000033023100010001000100010001000107
:100D8000000100010001000100010001000100005C
:100D9000000000650046004900010039000000E144
:100DA00000E000E200010000007D007C007B007A92
:100DB000000100010001000100010001000100012B
:100DC00000010001000100010001004B0001005280
:100DD00000010001002A004E00500051004F004C5D
:100DE000002A0000000100000001000000010001D5
:100DF00000010001000100010001000100010001EB
:100E000000010001000100010001000100010001DA
:100E100000010001000100010001000660FF0961FE
:100E2000A1010962150026FF0095207508810209BD
:100E300063150026FF00952075089102C005010981
:100E400006A101050719E029E71500250195087598
:100E50000181029501750881010507190029FF1517
:100E60000026FF009506750881000508190129056F
:100E700015002501950575019102950175039101F4
:100E8000C009024200020100A0FA090400000103A7
:100E9000010100092111010001224400070581031D
:100EA00008000109040100020300000009211101EA
:100EB0000001222200070582032000010705030329
:100EC000200001120100020000000832FC8702012C
:100ED00000010203011C037600690061006C003A06
:100EE00000660036003400630032006200330063A5
:100EF0000000000C0353006F0066006C00650000EA
:100F0000001A034A006F0073006500660041006428
:100F10000061006D00630069006B000000040309BC
:100F2000040011241FBECFEFDAE0DEBFCDBF11E019
:100F3000A0E0B1E0E8E1FCE602C005900D92A03827
:100F4000B107D9F725E0A0E8B1E001C01D92A339AF
:100F5000B207E1F70E94CC2A0C94A1350C94000052
:100F6000482F2091870590914E0557E0291302C024
:100F700080E0089530E0529FF001539FF00D11245E
:100F8000E15BFA4F8181681306C08081481303C07A
:100F900085818111EECF2F5F3F4F2770E7CFE8EDBE
:100FA000F0E080818E7F80831092E2001092DA0060
:100FB0001092E100A0EEB0E08C9181608C93808172
:100FC0008F77808319BCA7EDB0E08C918E7F8C93D6
:100FD00080818F7E80831092370508952091E400F0
:100FE0003091E50095E6A9012091EC00822F8170F7
:100FF00020FF06C08091E80080FF06C080E00895D1
:101000002091E80022FD1AC080914405882389F0D0
:10101000853089F08091EB0085FD0FC02091E400C0
:101020003091E50042175307F9F29150E1F684E060
:10103000089582E0089583E0089581E00895809105
:10104000460587FF13C08091E80082FF06C08091AB
:10105000E8008B778093E80004C0809144058111FB
:10106000F2CF0895809144058823D9F38091E80058
:1010700080FFF8CF8091E8008E77ECCF982F909387
:10108000E900242F762F50E0891731F07091EC00A1
:101090002091ED005091F00021FD07C09F5F973037
:1010A00071F78093E90081E008953091EB003E7F75
:1010B0003093EB003091ED003D7F3093ED003091A7
:1010C000EB0031603093EB007093EC002093ED0067
:1010D0005093F0002091EE0027FDE0CF80E00895CE
:1010E000B0E0A0E0E6E7F8E00C948634C8EDD0E08C
:1010F00088818F7E8883E7EDF0E080818160808346
:1011000084E082BF81E08093370588818E7F888369
:1011100002EE10E0F80110821092DA0081EEC82E83
:10112000D12CF601108288818F778883888180682E
:10113000888388818F7D888319BC10924405109222
:101140004505109243051092420590EEE92EF12CD0
:10115000F70180818B7F808388818160888342E072
:1011600060E080E00E943E08F60180818E7F8083EF
:10117000F801808181608083808188608083F701AD
:1011800080818E7F8083888180618883CDB7DEB740
:10119000E8E00C94A234FC0180914C0590914D053F
:1011A00086179707A0F06115710529F49091E80062
:1011B0009E779093E80090E06115710551F49111CC
:1011C00008C08091E80082FF34C080E00895BC012F
:1011D000F2CF809144058823C1F18530C1F180911F
:1011E000E80083FD30C08091E80082FDEACF809165
:1011F000E80080FFE1CF8091F3002091F200382FCA
:101200006115710519F02830310558F091E028304A
:10121000310509F090E02091E8002E772093E80056
:10122000CBCF81918093F100615071092F5F3F4FC7
:10123000E7CF80914405882341F0853041F08091CB
:10124000E80083FFBECF81E0089582E0089583E047
:10125000089508950895089580913905089587E7C0
:1012600097E7909301088093000888E19AE00FB611
:10127000F894A895809360000FBE90936000FFCF14
:101280002FB7F8946091330570913405809135053E
:10129000909136052FBF08959C01FC0132969FEF77
:1012A00080E04191461751F09F3F19F4411101C070
:1012B000982F8F5F8630A9F79F3F09F40895290F73
:1012C000311D97FD3A95F90162830895FC01680F7D
:1012D000791F8FEF91E32191822728E030E087FF8B
:1012E00009C0880F892721503109C9F7E617F70788
:1012F00091F70895880FF7CFFA01811101C0FB0122
:1013000009950895E7E4F2E0118282818460828386
:10131000089580918B05982F9E7F61F48170826083
:1013200080938B0580918E058E3718F08DE7809322
:101330008E0508958031B0F381708E60F1CFAF9249
:10134000BF92DF92EF92FF920F931F93CF93DF93A1
:10135000082F162FE901E42FF0E0E559FC4F611149
:1013600010C0E4915E2F4E2F4983E8835A83DF91AA
:10137000CF911F910F91FF90EF90DF90BF90AF90B2
:101380000895E62EF12C4491D42EE42FF0E026E0CF
:10139000829FC00111242FEF30E0B9010E94683410
:1013A000802F90E0880F991F55E5569FD001579FD9
:1013B000B00D11248A1B9B0B982F990F890F59018F
:1013C000AE18BF08AE9ED001AF9EB00DBE9EB00D50
:1013D00011245B2F189F80011124012F112759011F
:1013E000A01AB10AAE9E8001AF9E100DBE9E100DD8
:1013F00011245901A81AB108AE9CC001AF9C900DF0
:10140000BE9C900D1124892F9927281B390B2E9FE4
:10141000C0012F9F900D3E9F900D1124E92F623047
:101420007105A1F050F46115710509F49DCF61308B
:10143000710581F0EB2F512F97CF6430710569F062
:1014400080F06630710509F48FCFF4CFE42F4B2F75
:10145000592F8ACFE42F412F87CFEB2F542F492FBD
:1014600083CF4B2F5D2DE12F7FCF80E00895F8943F
:10147000E82FE295EF70F0E031A1282F2F7081E086
:1014800090E001C0880F2A95EAF7982F9095932352
:1014900091A392A1892B82A3789408959091190227
:1014A00092FF10C041E0282F2471243009F040E061
:1014B00031E0282F2871283009F030E0431711F06F
:1014C0002CE0822793FF10C041E0282F24712431A3
:1014D00009F040E031E0282F2871283109F030E090
:1014E000431711F02CE0822730911A0230FF10C010
:1014F00051E0282F2171213009F050E041E0282FE0
:101500002871283009F040E0541711F029E08227B3
:1015100031FF10C041E0282F2171213109F040E056
:1015200031E0282F2871283109F030E0431711F0FD
:1015300029E0822794FD877E089582389105B9F1CC
:10154000B0F48133910509F47DC048F489329105E6
:1015500009F46DC08A32910509F47BC00895853382
:10156000910509F45FC08933910509F10895833E1F
:101570009105D9F138F4803E910529F1823E91051B
:1015800079F10895863E9105D9F1873E910509F4D8
:101590003EC0843E910541F520911A0221FF24C0EE
:1015A0008091190284FD19C087EE90E00895209182
:1015B0001902237009F05AC020911A0223FF14C0A7
:1015C00089E290E008952091190220FD38C0309101
:1015D0001A0230FF09C024FF43C090E080E0089564
:1015E0002091190222FDF7CF08952091190222FDC2
:1015F0003AC030911A0230FD39C024FFF5CFEDCF4B
:101600002091190223FFF0CF24FDE7CFCDCF209109
:10161000190223FD2EC030911A0231FFEECF84EE65
:1016200090E008952091190225FFDECFC9CF2091C7
:10163000190225FD21C020911A0223FFD5CF89E38D
:1016400090E0D2CF2091190226FFCECF8AE290E01F
:1016500008952091190226FFC7CF81E390E00895F5
:1016600083EE90E0089582EE90E0089580EE90E0A1
:10167000089586EE90E0089585E390E008950F9335
:101680001F93CF93DF930E949D0AEC01C03282E545
:10169000D80708F040C0C11582E5D80708F094C00B
:1016A000C11580E2D80710F5C11581E0D80708F010
:1016B0007AC0C03ED10588F4CD3CD10508F071C098
:1016C000C130D10569F0209759F0CE010497813AD5
:1016D000910530F0D0E0C0E003C0C83ED105D0F79E
:1016E000CE01DF91CF911F910F910895C11580E533
:1016F000D80708F0ACC08E011127C11580E4D807C7
:1017000008F4BFC0C8010E949D0ACC27DF70C82B17
:10171000D92BD06AE5CFC03A82E5D80720F5C0388A
:1017200082E5D80708F080C0C03682E5D80708F007
:1017300066C0C03482E5D80708F45AC02C2F26951D
:101740002695277080E2289F900111248C2F8370AA
:10175000C1E0D0E002C0CC0FDD1F8A95E2F7C22BBA
:10176000D32BDC68BDCFC03E82E5D80760F4C03C17
:1017700082E5D80708F45FC0DC2FCC27CC27DF71C7
:10178000C06FD06AADCFCE0196558F3F910511F055
:1017900008F0A0CFCE0199270E949D0AEC01D066E7
:1017A0009FCFD0659DCF8D2F0E944E0A182FCE015E
:1017B00099270E949D0AC12FD0E0DC2FCC27CC278F
:1017C000DF71C82BD92B8CCF2C2F2695269580E244
:1017D000289F900111248C2F8370C1E0D0E002C0BB
:1017E000CC0FDD1F8A95E2F7C22BD32BDD6878CFB3
:1017F000CF71D0E0DC2FCC27C16FD06A71CF2C2FF6
:1018000026952695277080E2289F900111248C2F21
:101810008370C1E0D0E002C0CC0FDD1F8A95E2F7F3
:10182000C22BD32BDA685CCFCF71D0E0DC2FCC2772
:10183000C46FD06A55CF8C2F8F710E944E0AC82F6B
:10184000D0E0DC2FCC27CC27DF71D06249CF8C2FA2
:101850008F710E944E0A55E0D695C7955A95E1F7CB
:10186000CF70D0E0DC2FCC27282F30E084FF05C0DC
:1018700044E0220F331F4A95E1F7C22BD32BD069E6
:101880002FCF8D2F8F710E944E0AC82FC8010E9442
:101890009D0AD0E0DC2FCC27CC27DF71C82BD92BB9
:1018A000D4CF8091CB01882331F01092CB011092DC
:1018B000CA011092C901089580959091C80198239A
:1018C0009093C80108951092BE011092BD0110922C
:1018D000BC0108959091BB01292F282321F0809508
:1018E00089238093BB0108958091870590914E05CF
:1018F000981301C008958F5F8770FACFA82FA77043
:1019000023E0969587952A95E1F7FC01EE0FFF1FDE
:10191000E80FF91FE60FF71F50E040E080E021914B
:1019200030E00A2E02C0369527950A94E2F721701E
:101930003327042E01C0220F0A94EAF7822B4F5F4F
:101940005F4F4330510559F70895903FC9F09A30E1
:1019500080F48630A8F4282F30E06AE971E0A9010C
:10196000E6E09E9F400D511D1124CA010E947E0C8D
:1019700008959C5F923020F467E971E090E0F6CF23
:1019800080E00895262F277091E001C0990F2A95D5
:10199000EAF723E0769567952A95E1F7FB01EE0FCC
:1019A000FF1FE60FF71FE40FF51F50E040E0682F20
:1019B00070E08191DF0111979B01042E02C03695E2
:1019C00027950A94E2F721702195282729232827B3
:1019D0002C934F5F5F4F4330510559F70895282FDF
:1019E000862F903F79F09A3070F4263058F4622FA9
:1019F00070E026E0929F600D711D11244AE951E0CC
:101A00000E94C20C08959C5F9230E0F7622F70E054
:101A100047E951E0F5CF80930103089590910103C8
:101A200021E030E0F90101C0EE0F8A95EAF7D90113
:101A300002C0AA0FBB1F6A95E2F7EA2B01C0220F72
:101A40004A95EAF7892F8E23E81305C0292B822FA8
:101A50000E940B0D089520952923F9CF21E030E055
:101A600001C0220F8A95EAF7209580910103822315
:101A70000E940B0D08959091BE018095892380935B
:101A8000BE01282F277069F4891759F090911A0226
:101A900092FF07C08695869586950E942E0D0E941E
:101AA000630C089521E030E001C0220F8A95EAF727
:101AB00080910103822B0E940B0D08958093CC012D
:101AC0000895982F92959F7011F0892F94E0282FF8
:101AD0002695269511F09E5F822F869509F09F5FCF
:101AE000892F08959C013A9521153F4150F5FC013D
:101AF000EE27F170BC0166277270AC014427547068
:101B00009C012227387094FF0EC080E1EF2B09F46E
:101B100080E0672B09F08062452B09F08064232B5D
:101B200089F08068089581E0EF2B09F480E0672B4D
:101B300009F08260452B09F08460232B19F088603E
:101B4000089580E008950F931F93CF93DF938B0147
:101B5000EA0190914405943061F58093E9008FEF9C
:101B60009091E800815095FD06C095ED9A95F1F7AA
:101B700000008111F5CF8091E80085FF1AC00E9416
:101B8000EE07811111C08091E80085FD06C08091AB
:101B9000E8008E778093E800F2CFF80181918F0101
:101BA0008093F100219779F78091E8008E778093F8
:101BB000E800DF91CF911F910F910895CF93DF93AC
:101BC000EC0148E050E0BC0181E00E94A30D88E0F8
:101BD000FE01AAE3B5E001900D928A95E1F7DF914D
:101BE000CF91089560913D0180918B0580FF20C0C9
:101BF00080913C0143E0849FC0011124865B9D4F8E
:101C0000539A2BB1277F3BB138605FB7F894FC0142
:101C1000649FE00DF11D1124BF0168177907D1F40D
:101C20005FBF8FE594E00197F1F700C000000895D1
:101C300080913E0190913F0123E0829FF0011124A9
:101C4000E65BFD4F8917A0F61182108212828F5F2A
:101C50003396F8CFFC014191CF01E8E03BB9000099
:101C600000C047FF2BB9440F000000C000C000C0F7
:101C70002BB900C0EA9591F7D0CFEF92FF921F9356
:101C8000CF93DF93EC0110E0EE24EA94F12C609105
:101C90004001161770F00E94F20D9A818C8190FF1E
:101CA0002AC08F5F8C83DF91CF911F91FF90EF90BF
:101CB000089520913E01422F410F5527551FCA011B
:101CC0009A01220F331F280F391F265B3D4F409189
:101CD0008E054E3708F04DE770E0C7010E94BF3413
:101CE000962F8C8160918D05199F800D11240E9483
:101CF0009F091F5FCCCF8150D5CFEBE8F5E0808105
:101D00008E7F80830E948209E7E4F2E08281816015
:101D100082830E94F20D0895B0E0A0E0E2E9FEE0C7
:101D20000C9484347C015B016A018091060201E01D
:101D300010E08A3010F40AE010E0C1E0D0E0B50114
:101D4000C701F6010995811104C021960C171D07E2
:101D50002CF4CDB7DEB7EAE00C94A034CC9F900110
:101D6000CD9F300D300D112490E080E045E34A9581
:101D7000F1F70000019682179307C1F7E0CF809139
:101D8000D901811119C088EC90E02091E30027FD72
:101D900010C0EFE3FCE93197F1F700C000000197B4
:101DA000A1F782E08093D9010E94CF0710924405E9
:101DB00003C081E08093D90181E09091D9019130F5
:101DC00011F080E0089508950E94BF0E882359F015
:101DD000E0913005F0913105309729F00190F081C4
:101DE000E02D0995089580E008950F931F930E94B8
:101DF000BF0E882329F00E9440091F910F9108957A
:101E00000E944009009107021091080220910902E6
:101E100030910A02600F711F821F931FEECF0E9444
:101E2000F50E0895CF93DF93C9E2D2E060E0CE01D2
:101E30000E946D352196C11584E0D807B9F7DF916E
:101E4000CF9108950F931F93CF93DF93142F022FF9
:101E5000843020F5623010F598E0899FE00111246C
:101E600084E0689FB0011124C60FD71FC75FDD4F04
:101E700082E090E0442311F090E080E0632F8C0F2B
:101E80009D1F0E946D3583E090E0112311F081E0E9
:101E900090E0602F8C0F9D1F0E946D35DF91CF91D8
:101EA0001F910F9108951F93CF93DF93122F8430CA
:101EB000E0F46A30D0F44630C0F4C42FD0E0CC0F48
:101EC000DD1F9CE0699FC00DD11D112498E7899FFB
:101ED000C00DD11D1124632FCE0189960E946D354E
:101EE000612FCE018A960E946D35DF91CF911F91AF
:101EF0000895B0E0A0E0EFE7FFE00C948134C090DB
:101F00004801D090490181E090E09093490180938D
:101F100048010BEF1DE08BE1E82E8CE0F82EC0E0CD
:101F20005701D0E015C0F40125913491472D6D2F54
:101F30008C2F0E94530F82E0880E911C739486E0D0
:101F40007812F1CF8CE0A80EB11CDF5FDA3019F007
:101F50004501712CE8CFF8012591349141E060E012
:101F60008C2F0E94220FF80132962591349140E087
:101F700060E08C2F0E94220FF80134962591349155
:101F800041E061E08C2F0E94220FF80136962591E6
:101F9000349140E061E08C2F0E94220F085F1F4FB8
:101FA000CF5F88E7E80EF11CC43009F0B9CFD092BA
:101FB0004901C0924801CDB7DEB7EDE00C949D34E5
:101FC000CF93C82F6FEF81116FE085E290E00E9400
:101FD0006D356FEFC1116EE586E290E00E946D35C0
:101FE0006FEFC11161EA87E290E00E946D35CF91F9
:101FF000089580E00E94E00F60E088E290E00E9497
:102000006D350E94790F0E94120F81E00E94E00F4F
:102010000895FF920F931F93CF93DF93F42E843094
:1020200070F5623060F528E0829F8001112434E071
:10203000639FB0011124060F171F075F1D4F82E039
:1020400090E0442311F090E080E0800F911F0E9407
:102050004935C82FD0E0DC2FCC2783E090E0FF206B
:1020600011F081E090E0800F911F0E9449359E01A0
:10207000282BC901CDB7DEB7E5E00C94A53490E07C
:1020800080E0F8CF0F931F93CF93DF93843030F528
:102090006A3020F5463010F5C42FD0E0CC0FDD1F9C
:1020A0002CE0629FC00DD11D112438E7839FC00D25
:1020B000D11D1124CE0189960E944935082F10E0C8
:1020C000102F0027CE018A960E9449359801282BAF
:1020D000C901DF91CF911F910F91089590E080E0A9
:1020E000F8CF20913F0230914002232BD9F4703F6A
:1020F00039F4603FB9F48091F8029091F9020895A3
:102100007A3048F4663070F4843060F4462F672FDC
:102110000E94421008957D3F41F4623018F441E07E
:10212000843050F090E080E008957C3FD9F7623031
:10213000C8F78430B8F740E00E9409100895CF92A4
:10214000DF92FF920F931F93CF93DF936C01009167
:1021500001038091CC01082BC3E0D0E010E0FC2EFD
:10216000C8010C2E02C0959587950A94E2F780FD70
:102170000CC02197A0F7F12C8F2DDF91CF911F91EB
:102180000F91FF90DF90CF900895B6018C2F0E94A1
:1021900071100E943F0B019761F3EECFCF93DF9355
:1021A000EC010E949F10BE010E9471100E943F0B23
:1021B000DF91CF910895FC0124812223C1F0808119
:1021C00091810E94CE1092959F70963091F058F4B4
:1021D000925F9F70923058F4803F19F030F4883E3F
:1021E00030F481E008959A5FF4CF843FD1F380E02A
:1021F0000895883EB0F3813FD1F7F3CFA6E0B0E079
:10220000E4E0F1E10C948B3449835A8349815A818B
:102210009923A1F0222391F0CA010E949F10182F48
:10222000682F89819A810E94EF0C69817A81812FC0
:102230000E9471102696E3E00C94A734CA010E9414
:10224000A50C182FF2CF85E290E00E9449358F301F
:1022500089F486E290E00E9449358E3559F487E290
:1022600090E00E94493591E0813A09F090E0892F91
:102270008170089580E0FCCF1F93CF93DF93162FDA
:102280008A3039F481E00E94DF11DF91CF911F91F4
:1022900008958D3011F480E0F6CFC0910203D09103
:1022A000030396E0FE01AAEFB2E001900D929A9529
:1022B000E1F7803E90F186E0FE0111928A95E9F700
:1022C000C0910203D0910303111133C046E050E0E6
:1022D000BE018AEF92E00E942C359E0124523340C9
:1022E000892B91F52A5F3F4F40910003642F70E0E6
:1022F000C9010E946834481B463010F4240F311D78
:10230000211572E0370710F030E020E02C5D3C4FE3
:102310003093030320930203B8CFF6E08F9FB00100
:10232000112465597B4F46E050E0CE010E941635DE
:10233000C7CF9E012A5F3F4FFE012E173F0731F2A4
:10234000808180958193F9CFC90145E09695879565
:102350004A95E1F741E050E0BA0102C0660F771FED
:102360008A95E2F7CB016091260570912705862BAF
:10237000972BB9016B5F7F4FE5E076956795EA95FE
:10238000E1F702C0440F551F6A95E2F7842B952BA5
:102390009093270580932605A5CF1F93CF93DF93B6
:1023A000EC01162FFE018491811104C0DF91CF91C1
:1023B0001F910895612F0E943C112196F3CFCF9376
:1023C000382FE0910203F0910303E452F34020918F
:1023D0000003622F70E0CF010E946834281B822F17
:1023E000332369F066E00E94B334C82FC15010F463
:1023F000CF91089560E080E20E943C11F7CF9F01E9
:10240000280F311D2115324018F080E0F0E0E0E0A7
:102410008E0F9F2F911D8C5D9C4F90930303809393
:102420000203E6CF0E94CD1181E00E94DF110895E2
:10243000B0E0A0E0EEE1F2E10C9486346C017B01A7
:1024400064E670E088E70E94C6318C01E601EC0C7E
:10245000FD1C17FD0BC0FE01849164E670E00E9434
:1024600032328C012196CE15DF0599F70E94A832F1
:1024700081E00115110509F080E0CDB7DEB7E8E095
:102480000C94A23480912C0590912F05911103C0DA
:1024900091E089270895882369F062E070E08DEA71
:1024A00099E00E941812811103C080912C050895B3
:1024B00010922C0580912C05EBCFCF93C0912C0569
:1024C00080912F058823D1F00E944009605A754100
:1024D0008F4F9F4F609328057093290580932A059D
:1024E00090932B05C11108C062E070E08BEA99E07F
:1024F0000E941812811105C0C0912C058C2FCF911C
:10250000089581E080932C05F7CFB0E0A0E0EBE8E0
:10251000F2E10C94823449015A016B017C010E9462
:1025200089098401A4016A2D7B2D88E090E00E9436
:102530007F3594014A2D5B2DB601C70100E20E9450
:10254000FB34622F84E290E00E946D35CDB7DEB798
:10255000ECE00C949E34A3E0B0E0E1EBF2E10C94EB
:102560008834082FF62E142FE22E80918B0580FFE1
:1025700054C020918C05201308C090918D059613AE
:1025800004C090918E05941729F0909149029260B1
:1025900090934902E82FE695F0E0E059FE4F9081D4
:1025A000909347028E7F823009F041C0412F1E3741
:1025B00008F04DE79E012F5F3F4F6F2D802F0E9447
:1025C0009F0980918B0580FF11C02B8139814A8141
:1025D00080913E0190913F0153E0859FF0011124CD
:1025E000E65BFD4F8917E8F00E94F20D00938C0521
:1025F000F0928D0510938E05EE2079F020918B05D9
:1026000060918F0570919005302F4F2D512F809143
:102610009105909192050E9485122396E6E00C9414
:10262000A4344183308322838F5F3396DBCF923093
:10263000E9F6022FDBCFEBE8F5E0438121E1421B15
:1026400008F440E021E0628181810E94AB1208958C
:10265000EBE8F5E0438121E1420F08F44FEF21E080
:10266000628181810E94AB120895EBE8F5E06281FE
:1026700021E1621B08F460E021E0438181810E9436
:10268000AB120895EBE8F5E0628121E1620F08F4F6
:102690006FEF21E0438181810E94AB120895EBE846
:1026A000F5E0818121E04381628188500E94AB1274
:1026B0000895EBE8F5E0818121E043816281885F44
:1026C0000E94AB12089580918F05882319F08150E4
:1026D00080938F0520918B0530918C0540918D055D
:1026E00050918E0560918F057091900580919105B4
:1026F000909192050E948512089580918F058330F4
:1027000018F48F5F80938F0520918B0530918C0595
:1027100040918D0550918E0560918F0570919005C7
:1027200080919105909192050E9485120895EBE8A1
:10273000F5E087E0808311828FEF82838DE78383CA
:102740001482A7E4B2E012968C91129783601296DD
:102750008C93758127E030E04FEF5DE760E0868184
:1027600097810E948512089590911A0292FB222768
:1027700020F9281779F080FB92F990931A02609162
:10278000190270911A0284E090E00E948B3582E079
:102790000E943B0D089590E080E00E945735863EF0
:1027A0009E4F19F40E942311089580E00895ABE034
:1027B000B0E0EDEDF3E10C948C3488E0EBE8F5E06B
:1027C000DE01119601900D928A95E1F78091470202
:1027D00090914802A091490289879A87AB872B85FF
:1027E000409102025091030260910402709105022F
:1027F0003FB7F8948091330590913405A091350549
:10280000B09136053FBF841B950BA60BB70B8436E2
:102810009105A105B10510F4222319F18091290138
:1028200090912A0185519E4F4091280150E04C30F3
:10283000510510F04BE050E0BE016F5F7F4F0E94EA
:10284000393585E090E00E94F233882369F00E94D8
:1028500040096093020270930302809304029093F4
:1028600005021092490281E02B96E2E00C94A83414
:10287000A4E0B0E0EEE3F4E10C948B344091E70186
:102880005091E8016091E9017091EA012FB7F89445
:102890008091330590913405A0913505B0913605AE
:1028A0002FBF841B950BA60BB70B11E08436910547
:1028B000A105B10570F10E94F50E6E5F7F4F8F4F3D
:1028C0009F4F69837A838B839C83809121019091B0
:1028D000220185519E4F4091200150E04530510525
:1028E00010F044E050E0BE016F5F7F4F0E94393529
:1028F00084E090E00E94F233182F882351F00E9468
:1029000040096093E7017093E8018093E901909397
:10291000EA01812F2496E3E00C94A7344F925F9252
:102920007F928F929F92AF92BF92CF92DF92EF925F
:10293000FF920F931F93CF93DF930F92CDB7DEB724
:10294000C62E4A015901482E880F5508C2010E941F
:10295000F233782E882309F480C0C20133E0880F57
:10296000991F3A95E1F7FC01E050FF4F438150E099
:102970004115510511F041E050E080509F4FFC019E
:102980006481758165517E4FCE0101960E94393573
:10299000F40140815181628173812FB7F894809155
:1029A000330590913405A0913505B09136052FBFC0
:1029B000841B950BA60BB70B84369105A105B105B9
:1029C00040F4B701C8010E9466099981891709F48A
:1029D00044C00C2C000CDD08C6010E94F233782E96
:1029E000811113C0712C872D0F90DF91CF911F9112
:1029F0000F91FF90EF90DF90CF90BF90AF909F909E
:102A00008F907F905F904F900895C60123E0880FCC
:102A1000991F2A95E1F7FC01E050FF4F438150E0F8
:102A2000E416F50608F4A70180509F4FFC0164816D
:102A3000758165517E4FC5010E943935B701C801C6
:102A40000E94660999818913CDCF0E944009F40143
:102A50006083718382839383C6CFA701B801C501C8
:102A60000E943935C0CFA5E0B0E0E9E3F5E10C9470
:102A700086346B0185E0E82EF12C0CEE11E09E010E
:102A80002F5F3F4F4FED51E061E080E00E948E14D8
:102A9000882349F095E0FE013196AAEDB1E001905E
:102AA0000D929A95E1F795E0EAEDF1E0D6010190FB
:102AB0000D929A95E1F72596E8E00C94A234A8E0EF
:102AC000B0E0E5E6F5E10C948C3466EE7EEF90E044
:102AD00080E00E948B3560E082E090E00E946D35DE
:102AE00060E083E090E00E946D351092CC0160E0E0
:102AF00074E184E090E00E948B3560E086E090E035
:102B00000E946D356FEF87E090E00E946D3540E0E8
:102B100050E0BA0188E090E00E947F3560E084E2F6
:102B200090E00E946D3560E087E190E00E946D3595
:102B300060E08CE090E00E946D3560E08DE090E018
:102B40000E946D3519821A821B821C821D821E8290
:102B50001F82188648E050E068E170E0CE010196DF
:102B60000E945D3540E050E0BA0180E290E00E94B2
:102B70007F3580E00E94E00F0E94F90F40E050E0B6
:102B8000BA018FE090E00E947F3540E050E0BA014A
:102B900083E190E00E947F352896E2E00C94A8340F
:102BA0001F920F920FB60F9211242F933F934F93C2
:102BB0005F936F937F938F939F93AF93BF93EF93A5
:102BC000FF938091E10082FF09C08091E20082FFC3
:102BD00005C08091E1008B7F8093E1008091DA0055
:102BE00080FF24C08091D80080FF20C08091DA004F
:102BF0008E7F8093DA008091D90080FF9DC080E1B4
:102C000089BD82E189BD09B400FEFDCF81E08093DA
:102C1000440580913705811109C00E94CF070E94A9
:102C200070088091E20084608093E2008091E1006E
:102C300080FF17C08091E20080FF13C08091E20006
:102C40008E7F8093E2008091E20080618093E200B9
:102C50008091D80080628093D80019BC85E0809371
:102C600044058091E10084FF2BC08091E20084FF45
:102C700027C080E189BD82E189BD89B5982F917017
:102C800080FFFBCF8091D8008F7D8093D80080910A
:102C9000E1008F7E8093E1008091E2008F7E80933F
:102CA000E2008091E20081608093E200809145051E
:102CB000882309F447C084E080934405809144054B
:102CC0008091E10083FF27C08091E20083FF23C051
:102CD0008091E100877F8093E10082E0809344054A
:102CE000109245058091E1008E7F8093E1008091F4
:102CF000E2008E7F8093E2008091E2008061809309
:102D0000E20042E060E080E00E943E088091F00036
:102D100088608093F000FF91EF91BF91AF919F91F8
:102D20008F917F916F915F914F913F912F910F9074
:102D30000FBE0F901F90189519BC10924405109269
:102D4000370574CF8091E30087FD93E090934405AD
:102D5000B5CF78941F921FB61F9211248F939F9323
:102D6000AF93BF938091330590913405A0913505C1
:102D7000B09136050196A11DB11D80933305909346
:102D80003405A0933505B0933605BF91AF919F915F
:102D90008F911F901FBE1F9018959C014FB7F894FC
:102DA0008091330590913405A0913505B091360599
:102DB0004FBF821B930B08952FB7F8948091330572
:102DC00090913405A0913505B09136052FBF089537
:102DD0002F923F925F926F927F928F929F92AF92CB
:102DE000BF92CF92DF92EF92FF920F931F93CF93F8
:102DF000DF9380912F05882309F484C080912D05ED
:102E000090912E050E94CD16C29708F45BC00E94D7
:102E1000DC1690932E0580932D0584E293E0909329
:102E20000303809302030E94BF0E882309F484C029
:102E300060E088EE99E00E94CD11809101030E942C
:102E4000610D882341F0813031F160E089ED99E036
:102E50000E94CD1105C060E083EE99E00E9412123D
:102E600060E086ED99E00E94CD1160E080ED99E090
:102E70000E941212809101030E94610D823009F4B8
:102E800053C068F0833009F453C060E088EB99E0E8
:102E90000E94121209C060E08EED99E0DFCF60E081
:102EA0008AEC99E00E94CD1160E085EB99E00E94E8
:102EB000CD110E94E40E81FB662760F98FEA99E04C
:102EC0000E9412128091260590912705892B09F006
:102ED00072C080912C058823A9F00E9440090091BE
:102EE00028051091290520912A0530912B05601B9A
:102EF000710B820B930B6F3F7F4F8F4F9F4710F4E7
:102F00000E944212DF91CF911F910F91FF90EF909D
:102F1000DF90CF90BF90AF909F908F907F906F90F9
:102F20005F903F902F90089560E084EC99E0BACFD5
:102F300060E08EEB99E0B6CF80910203909103039D
:102F4000845293409C0120583E4F21303240B0F0D3
:102F500020E032E0281B390B4091260550912705CF
:102F6000EBEEF9E0280F391FC1E0D0E0821793079C
:102F700040F05093270540932605A4CF20E831E088
:102F8000EBCF6491DC01AC5DBC4F7C91671781F0A5
:102F90006C93BC01A5E076956795AA95E1F7DE01F3
:102FA00002C0AA0FBB1F6A95E2F7BD014A2B572B3F
:102FB00001963196DBCF80912F05882309F489CFC4
:102FC00080912505811185CF0E945D1220912605F3
:102FD000309127052115310509F47BCF80E041E0D0
:102FE00050E0082F10E01A01082E02C0220C331CFA
:102FF0000A94E2F7B10162237323672B11F48F5F08
:10300000F0CF9091240590FF95C0880F880F880F0E
:103010008093430110924601895F8093440183E0CD
:103020008093470124E630E047E050E061E471E03E
:1030300088E70E946032892B09F04BCFA80125E078
:10304000440F551F2A95E1F78091240580FF84C025
:10305000E4E0F3E080E2EF0119928A95E9F7ACE74A
:10306000B1E008E711E080E8C82E81E0D82E97E0B3
:10307000592E772473948D91F80121918F01240F9B
:10308000352F311D2C5D3C4FE82FF0E0EC5FFC4FFD
:1030900090E080E0652C681A872C082E01C0880C0F
:1030A0000A94EAF77901A12CE701B9907E01B820D2
:1030B000662D6A196770962E062E000C770BDB2D95
:1030C00001C0DD0F9A94EAF77195619571096770F7
:1030D000772701C0B6946A95EAF7BD2A6081962EDB
:1030E0009B289082A39468E0A612DECF01963196C9
:1030F0008830910579F6CA16DB0609F0BCCF04E6E4
:1031000010E020E230E044E053E060E488E70E9411
:103110008132892B09F0DDCEE101C095D0958091F7
:10312000260590912705C823D923D0932705C0935E
:103130002605CFCE8295880F807680934301980133
:10314000369527953695279520934601815E809385
:1031500044012093470166CF4C5D5C4F04E610E0CC
:1031600020E230E0D2CF0E94BF0E882319F00E94E7
:10317000DC1608950E94F50ECB01089560918B0531
:10318000669570E041E050E08BE391E00E941F35CE
:10319000892B19F481E0809348020E94B318909320
:1031A00042028093410280914902846080934902E7
:1031B000089590918B0590FF39C09170811137C0AF
:1031C000926090938B0580914902816080934902BF
:1031D000662391F020918B0530918C0540918D05EF
:1031E00050918E0560918F057091900580919105A9
:1031F000909192050E94851260918B05669570E012
:1032000041E050E08BE391E00E941F35892BB1F043
:103210000E94820981E08093440220E040918E0563
:1032200060918D0580918C050E94AB1208958830C5
:1032300010F09E60C6CF880F982BC3CF0E94BE1897
:10324000E9CF80918B058695815009F487E061E094
:103250000E94D918089580918B0586958F5F8830DC
:1032600008F081E061E00E94D918089580918B05F3
:1032700080FF08C0869582588F77853018F40E94A9
:103280002B19089561E082E00E94D9180895A5E104
:10329000B0E0EDE4F9E10C9481348E01045F1F4F3E
:1032A0008AE0D8011D928A95E9F785E5C82E81E06C
:1032B000D82EF12CE12CAA24A394B12C20E6822E46
:1032C00021E0922EF60181916F018F3F09F442C0F7
:1032D000F894E82FE295EF70F0E021A18F70A5013E
:1032E00002C0440F551F8A95E2F7CA01922F982B0E
:1032F00091A392A18095892382A3789400C0EAE5E6
:10330000F1E0712C31E021912F3F09F46BC0A22F25
:10331000A295AF70B0E090968C9190E02F7002C0B3
:10332000959587952A95E2F780FD5CC0832F782AD2
:10333000330F8E169F0639F7F601319780818F3F44
:1033400011F00E94370A50EA5A95F1F7F801EE0D94
:10335000FF1D70828FEFE81AF80A95E0E916F10474
:1033600009F0B0CF4AE050E0B8018DE092E00E9451
:103370002C35009741F02AE0F801ADE0B2E0019071
:103380000D922A95E1F700911802892B69F181E0ED
:103390008093D1010E94DC169093D0018093CF01DD
:1033A0008091CF019091D0010E94CD16059700F138
:1033B00010E00B5C1D4F45E050E06DE072E0C8018D
:1033C0000E942C35D12C892B51F085E0EDE0F2E004
:1033D000D80101900D928A95E1F7DD24D3941092E3
:1033E000D10107C080E0A3CF8091D1018111D8CF56
:1033F000D12C0E94BF0EC82EE0911802DE0111965A
:103400007D01882309F479C085E01D928A95E9F74A
:103410000E2F10E00B5C1D4F809106028A30D8F50C
:1034200043E355E1B701C8010E948C0E882309F4DB
:1034300053C044EF51E2B701C8010E948C0E8823AB
:1034400009F44AC048E354E1B701C8010E948C0E58
:10345000882309F441C047ED53E1B701C8010E9438
:103460008C0E8823C9F1109206028091170290E019
:1034700045E050E0B7018B5C9D4F0E942C3521E068
:103480002093D801892BE1F4C12C8C2D8D296596D0
:10349000EDE00C949D348091D2019091D3010E9473
:1034A000CD16843F914008F0BBCF8091D80188238E
:1034B00059F385E0F70111928A95E9F71092D80146
:1034C000A0911702B0E0AB5CBD4F85E0F701019021
:1034D0000D928A95E1F7D9CF809106028F3F31F0A6
:1034E0008F5F809306028A3008F4BFCF0E94DC16FB
:1034F0009093D3018093D201D8CFF0E0EB5CFD4FE5
:1035000085E0ACEEB1E001900D928A95E1F765E0BF
:1035100070E08CEE91E00E9466098093EB0140918F
:103520002F0250E060912E0270E0665D7D4FC70172
:103530000E94393589818093F20161E070E0C70112
:103540000E9466098093F1018090F3019090F4014C
:10355000A090F501B090F6018091D4019091D50131
:10356000A091D601B091D70188169906AA06BB068C
:10357000D1F08092D4019092D501A092D601B09260
:10358000D7010E94BF0E81110EC00E944009861A09
:10359000970AA80AB90A8092070290920802A0929C
:1035A0000902B0920A028BE0E7EFF1E0D701019047
:1035B0000D928A95E1F78091F7018695F090F801D8
:1035C000E090F901B090FA0100910002109101021F
:1035D00010920102112309F458CF10FF0BC09981FA
:1035E00090FF1CC090918B05916090938B0560E0DB
:1035F0000E94D91811FF06C020E04B2D6E2D8F2D93
:103600000E94AB1212FF04C0002359F00E94BE18A2
:1036100013FF3BCF81E08093440237CF0E947D0EA1
:10362000E9CF0E948209F4CF9091CB01292F282362
:1036300061F0809589238093CB01882339F00E9423
:10364000DC169093CA018093C901089590E080E050
:10365000F8CF8091C8019091C701892B8093820196
:103660008091CB01882319F10E94DC162091C901B9
:103670003091CA01821B930B8838934110F00E944D
:10368000510C809182019091CB01892B8093820112
:1036900020E084E891E0FC013191CF0131112F5FEE
:1036A000F1E08A389F07B9F721110E94510C48E0D8
:1036B00050E06FEB71E082E891E00E942C35892B9D
:1036C000A9F088E0E2E8F1E0AFEBB1E001900D9203
:1036D0008A95E1F7E0913005F0913105309731F0AE
:1036E0000280F381E02D82E891E00995089510921F
:1036F000C801E4E8F1E086E0DF011D928A95E9F770
:103700001092C7010E94291B0895AAE2B0E0EBE8DD
:10371000FBE10C948B3486E495E02091F100FC01F0
:103720002193CF01F5E08E349F07B9F780914705CB
:10373000833009F470C0B8F4813009F447C0823096
:1037400009F4B1C08091E80083FF91C280914605E1
:10375000909147059A3008F08AC2E92FF0E0ED55C4
:10376000FA4C0C94D3348A3009F48CC08B3009F4B1
:103770006FC0893039F780914605813219F7809101
:103780004A0590914B05892BE9F68091E800877FE7
:103790008093E8008091E80082FF38C09091F300A8
:1037A0008091F200029731F48091F100813011F0A4
:1037B000863021F48091F100809339058091E800F2
:1037C0008B778093E8000E941F08BCCF809146054C
:1037D000813A09F0B7CF8091E800877F8093E800B5
:1037E00080914A0590914B05892B61F468E08AE34A
:1037F00095E070E00E94CB088091E8008B77809381
:10380000E800A0CF60E090E080E0F3CF8091440535
:103810008111C0CF97CF80914605813A09F092CFB0
:1038200080914A0590914B05892B09F08BCF8091AF
:10383000E800877F8093E8008091E80080FFFCCF5C
:1038400080914A018093F1008091E8008E77B9CF92
:1038500080914605813209F075CF80914A0590919B
:103860004B05892B09F06ECF8091E800877F80930C
:10387000E8000E941F088091480580934A010E9439
:10388000771B60CF80914605813209F05BCF809134
:10389000E800877F8093E8000E941F088091490517
:1038A000809338054FCF80914605813A09F04ACF81
:1038B0008091E800877F8093E8008091E80080FF96
:1038C000FCCF80913805BECF803899F0823809F05E
:1038D000CEC180914A058F70873008F0C8C18093AF
:1038E000E9008091EB0085FB882780F91092E900C0
:1038F00006C080914205909143059111826090919C
:10390000E800977F9093E8008093F1001092F10017
:103910008091E8008E77A7C1882309F495C1823091
:1039200009F0A5C180914805811198C180914A058F
:103930008F702FEF280F263008F099C18093E9008F
:103940002091EB0020FF8AC1933031F48091EB008D
:1039500080628093EB0082C19091EB009061909324
:10396000EB0021E030E001C0220F8A95EAF72093B6
:10397000EA001092EA008091EB008860EACF8111A2
:1039800076C1109148051F778091E3008078812BE4
:103990008093E3008091E800877F8093E8000E9495
:1039A0001F088091E80080FFFCCF8091E3008068D1
:1039B0008093E30082E0111183E08093440557C1B6
:1039C0008058823008F053C1209148053091490554
:1039D0002C3D83E03807A1F583E08A838AE289835E
:1039E0004FB7F894DE01139620E03EE051E2E32F5A
:1039F000F0E050935700E49120FF03C0E295EF7090
:103A00003F5FEF708E2F90E0EA30C0F0C7968D9345
:103A10009D932F5F243159F74FBF8091E800877F36
:103A20008093E8006AE270E0CE0101960E94CB0824
:103A30008091E8008B778093E80019C1C096E7CFAA
:103A400040914A0550914B05832F9927833091056A
:103A500001F160F48130910509F47EC0029709F00C
:103A600006C182E490E0E1E8FEE035C081329105D4
:103A700009F466C08232910509F0F9C0411551057B
:103A800009F474C04130510509F0F1C0EBE1FEE0EA
:103A900022C033272130310509F442C021153105F8
:103AA00081F02230310509F443C02330310509F09B
:103AB000DEC0E5EDFEE0E4918E2F90E0E5EDFEE066
:103AC00007C0EDE1FFE0E4918E2F90E0EDE1FFE033
:103AD000009709F4CCC02091E800277F2093E800EC
:103AE00020914C0530914D058217930708F49C01F5
:103AF00040E02115310509F03EC041113CC08091E4
:103B0000E80082FD95CF80914405882309F490CF89
:103B1000853009F48DCF8091E80083FFF0CF88CF06
:103B2000E1E0FFE0E4918E2F90E0E1E0FFE0D0CF14
:103B3000E3EFFEE0E4918E2F90E0E3EFFEE0C8CFEC
:103B40004115510571F04130510509F090C089E0EF
:103B500090E0ECEAFEE0BFCF82E190E0E3ECFEE033
:103B6000BACF89E090E0E3E9FEE0B5CF84E490E0ED
:103B7000EDE3FEE0B0CF80914405882309F458CFEF
:103B8000853009F455CF8091E80083FD51CF8091B5
:103B9000E80082FDB4CF8091E80080FFAACF909129
:103BA000F3008091F2002115310519F0883091055C
:103BB00050F041E0089709F040E08091E8008E77EE
:103BC0008093E80096CF44914093F10031962150C4
:103BD00031090196E8CF803809F049C08091E800AA
:103BE000877F8093E800809145058093F10090CE17
:103BF00081113DC0109148051230C8F58091E80050
:103C0000877F8093E800109345050E941F081123C9
:103C100011F084E005C08091E30087FDFACF81E0D8
:103C20008093440542E061EC81E00E943E0842E25C
:103C300061EC82E00E943E0842E260EC83E00E9478
:103C40003E088091440513C080914805813079F485
:103C500081E0933009F080E0809343051092E90001
:103C60008091E800877F8093E8000E941F08809180
:103C7000E80083FF0AC08091E800877F8093E80016
:103C80008091EB0080628093EB00AA96E3E00C94B5
:103C9000A7341F920F920FB60F9211242F933F93C8
:103CA0004F935F936F937F938F939F93AF93BF9344
:103CB000CF93DF93EF93FF93D091E900DF70809172
:103CC000EC00C82FC17080FDC0E81092E90080911F
:103CD000F000877F8093F00078940E94851B1092FB
:103CE000E9008091F00088608093F000CD2BCF70C8
:103CF000C093E900FF91EF91DF91CF91BF91AF9118
:103D00009F918F917F916F915F914F913F912F91F3
:103D10000F900FBE0F901F9018950E94771B2FEFEA
:103D200084E39CE0215080409040E1F700C0000017
:103D300088E19AE00FB6F894A895809360000FBED2
:103D400090936000FFCF882341F080959091C70148
:103D500089238093C7010E94291B0895882339F085
:103D60009091C701982B9093C7010E94291B089539
:103D7000882321F00E945C0C0E94291B089588234F
:103D800039F09091C801982B9093C8010E94291B8B
:103D90000895882391F09CEF980F913A78F4E4E825
:103DA000F1E09191891303C0DF0111971C9291E01A
:103DB000EA38F907B1F70E94291B089590E2980F9D
:103DC0009830D8F7877091E001C0990F8A95EAF78B
:103DD000892F0E945C0CEFCFCF93C82F8823A9F0C6
:103DE0008CEF8C0F813A00F5E4E8F1E0DF018D9172
:103DF000C81769F081E0AA38B807C9F76C2F82E8C4
:103E000091E00E944C090E94291BCF910895819155
:103E1000C81303C0DF0111971C9281E0EA38F8074C
:103E2000B1F70E94291BEACF80E28C0F883068F737
:103E3000C77021E030E001C0220FCA95EAF78091F7
:103E4000C801822B8093C801DECF1F93CF93DF93ED
:103E5000182FCAE0D0E0893311F4C0E5D0E0812FFB
:103E60000E94EC1E8FE99FE00197F1F700C000006F
:103E70002197C1F7812F0E94C91EDF91CF911F9119
:103E800008950F931F93CF93DF93C62FD42F022F44
:103E9000FC0185818823A9F060938A050E94DC16C5
:103EA0009093890580938805C77081E001C0880FD1
:103EB000CA95EAF70E94BF1EDF91CF911F910F9123
:103EC000089580918A05681332C080918805909189
:103ED00089050E94CD168436910548F510E21D0F24
:103EE000CD17B9F080E28C0F883040F4C77081E0C4
:103EF00001C0880FCA95EAF70E94B81E183048F42E
:103F000081E09D2F977001C0880F9A95EAF70E9473
:103F1000BF1E802F0E94251F183070F6D77081E0D9
:103F200001C0880FDA95EAF70E94B81EC5CFC770A6
:103F300081E001C0880FCA95EAF7F6CFB0E0A0E0B3
:103F4000E4EAFFE10C948334EC01A62E8AE0982E7B
:103F50002881222309F4A4C0213009F04BC08981B3
:103F6000813091F48E010E5F1F4F8A810E94251FC0
:103F7000E80121968A2D815058F3EFE9FFE031974F
:103F8000F1F700C00000F7CF823039F48E010E5FE8
:103F90001F4F8A810E94EC1EEBCF833039F48E01D3
:103FA0000E5F1F4F8A810E94C91EE2CF843011F03C
:103FB0002196DFCF2A81229690E080E0AE014F5F0C
:103FC0005F4F2053330B2A30310548F0019788F2B8
:103FD000EFE9FFE03197F1F700C00000F7CF989EBE
:103FE000B001999E700D1124C901860F971F298178
:103FF000EA01E4CFE22FF0E0E556F44FB490822FCF
:1040000086958695869590E0FC01E557F44FE490FF
:104010002770F12C022E02C0F594E7940A94E2F77F
:1040200031E0E322FF24FC01E558F44FC490D12C89
:10403000022E02C0D594C7940A94E2F7E1E0CE22A2
:10404000DD24FC01E559F44F049110E002C0159500
:1040500007952A95E2F701701127E114F10419F090
:1040600081EE0E94EC1EC114D10419F086EE0E946C
:10407000EC1E8B2D0E94251FC114D10419F086EE71
:104080000E94C91EE114F10419F081EE0E94C91EBC
:104090000115110509F46DCF8CE20E94251F69CF2F
:1040A000CDB7DEB7EBE00C949F3490911A0292FFEB
:1040B00010C098E0899F90011124622B6093BE018B
:1040C0000E94520D0E94DC169093BD018093BC01AA
:1040D00008950E94520D0895ABE1B0E0E2E7F0E2EE
:1040E0000C948834688F798F8A8F9B8F142F052FBB
:1040F000F82EE92E91111092C701FF20B1F121E0B5
:10410000F212A4C00A3088F5163078F5E12FF0E0FD
:1041100046E0049FE00DF11D11249F012770332715
:1041200081E090E001C0880F2A95EAF7DF0143E0C3
:10413000B695A7954A95E1F7A557BE4F2C913091BA
:10414000B301E11002C0322F3823332309F4A9C090
:10415000AF01440F551FFA01E155FF4F0491FA01D9
:10416000E255FF4F1491822B8C931D8A1E8B0F8B6F
:1041700086E0FE017696DE011F9601900D928A95EB
:10418000E1F780911A0282FF2CC00E94DC16209178
:10419000BC013091BD01821B930B8838934120F004
:1041A0008091BE0182FFC9C00E94DC162091C90126
:1041B0003091CA01821B930B8838934110F00E9402
:1041C000510C0E94DC162091940130919501821BC4
:1041D000930B8838934128F080919601813009F43F
:1041E000A3C0FF2049F021E0412F502F69897A892F
:1041F0008F2D9E2D0E94FE101F87088BFB8AEC8A54
:1042000087E0FE013F96DE01189601900D928A9597
:10421000E1F7CE0108960E940D2981110CC087E0BC
:10422000FE013896DE01119601900D928A95E1F714
:104230008C85811139C017E08091870590914E05DA
:1042400089135FC06B96E6E00C94A4348EEF8F0D5B
:10425000823008F08ACF84E0800F823008F085CF6A
:10426000E12FF0E0912F977021E030E0D90102C0FA
:10427000AA0FBB1F9A95E2F7CD01DF0193E0B69537
:10428000A7959A95E1F7A657BE4F2C913091B301AF
:10429000E11002C0322F3823332319F0E455FF4FC9
:1042A00061CF8095822360CF20914E0530E0C90117
:1042B000019687709927409187054817190699F04C
:1042C00097E0929FD001939FB00D1124A15BBA4F4C
:1042D000FE01319601900D929A95E1F780934E057B
:1042E0000E94740CA8CF0E94771B10924E0510926A
:1042F000870587E0E4EBF1E0DF011D928A95E9F79D
:104300009ACF819FC0011124815B9A4F0E940D2991
:10431000882309F497CF8091870590E001968770F4
:1043200099278093870588CF109296011092B30148
:10433000109295011092940154CF82E00E943B0D9F
:1043400033CFACE0B0E0E7EAF1E20C948A34182F06
:10435000062F6623B9F10E94DC161F832DEF2887F4
:104360009A87898782E08B8781E08C874F81588587
:1043700069857A858B859C850E946C208FE39CE9FA
:104380000197F1F700C00000002329F10E94DC161C
:1043900019832DEF2A839C838B8382E08D831E8279
:1043A00049815A816B817C818D819E810E946C2024
:1043B0008FE39CE90197F1F700C000002C96E4E040
:1043C0000C94A6340E94DC161F832CEF28879A8752
:1043D000898783E0C8CF0E94DC1619832CEF2A83DB
:1043E0009C838B8383E0DACFA1E0B0E0EAEFF1E2D7
:1043F0000C948534EE24E394F12C02EF11E09E013D
:104400002F5F3F4F43EE51E063E082E00E948E1445
:10441000C82E882339F100E080E01DC0D0900C0246
:10442000D00E2D2D30E0A901465D5D4F7A01E1E00F
:10443000F0E0EC0FFD1FE00FF11D1081FA019081FB
:10444000191BB12E1B149CF0912F17FD90E0191B26
:10445000111118C00F5F90910B020917F8F281112A
:104460000E940F0F8C2D2196E9E00C94A134BA9490
:10447000F70180818F5F808360E08D2D0E94A121F4
:104480008C2DE0CF1F5FF70180818150808361E038
:104490008D2D0E94A1218C2DDBCFA6E0B0E0E3E5BD
:1044A000F2E20C948A348C019093F9028093F80222
:1044B000011580E21807C0F4802F0E94C91EC801B0
:1044C0000E94720D9801205E31092830310518F0E4
:1044D0000115110531F40E94B81E2696E4E00C94F3
:1044E000A6340E94A31EF9CF80EF89838A830E949D
:1044F000DC168160682F9C838B8349815A817C8183
:1045000081E090E00E946C20E8CFA6E0B0E0EBE80C
:10451000F2E20C948A348C019093F9028093F802B1
:10452000011580E21807C0F4C8010E94720D9801BD
:10453000205E31092830310518F00115110549F4C4
:104540000E94BF1E802F0E94EC1E2696E4E00C9471
:10455000A6340E94AE1EF6CF80EF89838A830E9424
:10456000DC168160682F9C838B8349815A817C8112
:1045700081E091E00E946C20E8CFA4E0B0E0E3ECA1
:10458000F2E20C9482347C01FC018481882309F4DA
:10459000E7C021E0408151816281738195810E9451
:1045A000FE108C01F7018581882309F4B9C0C80188
:1045B00097578038910508F0B5C5D02EFFE0F01769
:1045C00008F4BFC08FEF93E00E9449358111B9C054
:1045D00009E212E0D11037C019821A821B821C82B4
:1045E00099249A9468013FEFC31AD30AC8010E9424
:1045F000493589831A82882309F4A3C0813009F0E0
:1046000088C0580142E0A40EB11CC6010E94493581
:10461000C82E8A83882309F494C0C5010E944935B5
:10462000D82E8FEF8C0D8330E0F4580153E0A50EA7
:10463000B11CDB82DD2029F060E0CE0101960E94F2
:104640009E1F8501CFCF011524E0120709F479C020
:10465000C8010E944935811101C0DA940F5F1F4FD4
:10466000B9CF8BEF8C0D833070F5C8010396DB82D8
:104670005C01DD2031F35801E4E0AE0EB11C0E9474
:1046800049358C838823E9F20B811C810130FFEFCF
:104690001F0710F0102F002726E0C21681F037E028
:1046A000C31649F0C8010E9485228FE39CE9019757
:1046B000F1F700C00000C8010E944D22C2CFC8011E
:1046C0000E948522BECF94E0C912BBCF5801E4E01E
:1046D000AE0EB11CC80103960E944935DD2089F158
:1046E000882379F18150990B989E9001999E300D05
:1046F00011244D2D4150550BCA01820F931F019774
:1047000008F49FCFEFE9FFE03197F1F700C0000018
:10471000F6CF6AE0CE0101960E949E1F560191CF0E
:10472000F801E851FC47E730F10508F0E3C4E35530
:10473000FA4C0C94D33426E241EE61EEC7010E949C
:10474000411F8091BE01877059F0F7018581882350
:1047500039F080911A0282FF03C082E00E943B0D73
:104760002496ECE00C949E3427E245EE65EEE6CF0D
:1047700026E241EE60EEE2CF27E245EE64EEDECFC8
:1047800026E241EE62EEDACF27E245EE66EED6CFC4
:1047900028E241E0EBCF80911902816080931902F9
:1047A00095C080911A02886080931A028FC0809110
:1047B00019028260F3CF809119028460EFCF80915B
:1047C00019028860EBCF80911A028160EDCF809151
:1047D0001A028260E9CF809119028061DFCF809157
:1047E00019028062DBCF809119028064D7CF0E94CA
:1047F000771B809119028068D1CF809119028C605B
:10480000CDCF80911A028360CFCF809119028E7F25
:10481000C5CF80911A02877FC7CF809119028D7F03
:10482000BDCF809119028B7FB9CF80911902877F0C
:10483000B5CF80911A028E7FB7CF80911A028D7FFB
:10484000B3CF809119028F7EA9CF809119028F7DFD
:10485000A5CF809119028F7BA1CF0E94771B8091F9
:1048600019028F779BCF80911902837F97CF809118
:104870001A028C7F99CF8091190282FB992790F9B7
:1048800021E0922790FB82F990FB83F987CF8091FA
:104890001A02982F909591708E7F892B90FB81F949
:1048A00083CF90911902892F8F7B96FF806476CFFA
:1048B0000E94771B90911902892F97FB87F98058E6
:1048C0006DCF61E08EE090E00E946D35609119023D
:1048D00070911A0284E090E00E948B350E94771B51
:1048E00030CF60E0EFCF90911902892F8F7E94FF37
:1048F000806154CF90911902892F8E7F90FF816043
:104900004DCF90911A02892F877F93FF88604CCFFB
:1049100085E3FAC307372CE7120709F0BCC381E02F
:104920000E94520D43E062E081E00E940E0D09CF2B
:104930008091C8018272F801E052F847E531F10533
:1049400008F068C0EC54FA4C0C94D33480918B0579
:1049500080FF1EC0282F2E7F20938B0530918C0561
:1049600040918D0550918E0560918F057091900555
:1049700080919105909192050E9485120E94820972
:10498000809149028160809349020E94F20DD9CE44
:10499000816080938B0561E086950E94D918D1CE05
:1049A00041E259E16BE279E10E947C09CACE4BE217
:1049B00059E161E279E1F8CF4FE453E169E573E150
:1049C000F3CF49E553E16FE473E1EECF45E353E103
:1049D00062E473E1E9CF42E453E165E373E1E4CFDC
:1049E0004BE153E168E273E1DFCF48E253E16BE171
:1049F00073E1DACF43E653E16DE773E1D5CF4DE7DD
:104A000053E163E673E1D0CF61E081E0C6CF0E945D
:104A1000361997CE07373CE7130709F459C0083712
:104A20004CE7140709F458C0F70185810081118112
:104A3000882309F481C0C8010E949F10D82E682FD6
:104A4000C8010E94EF0CB8018D2D0E9471100E94C8
:104A50003F0B082FD92E982EF7011581B680B294FE
:104A60003FE0B3228091BE01877019F1A12E11237E
:104A700009F1892F807F803479F0902F20E2200F78
:104A80002830B8F0B11004C02D2D207E203289F0DE
:104A9000803611F4963F69F080911A0282FF09C0B6
:104AA00082E00E943B0D8091BE018770AA24A394EE
:104AB0008111A12C8D2C82942FE08222FBE0F8152D
:104AC00008F4A2C0E82DF0E0E753FA4C0C94D3347C
:104AD00081E00E942E0D26CF82E0FBCF0B35FCE754
:104AE0001F0741F10C352CE71207D1F00A351C479E
:104AF00009F09ACF81E01BC00E94771B4FEF54E36F
:104B00008CE0415050408040E1F700C000000E941E
:104B10002F096FEF7FEF90E080E00E948B35D1C2CC
:104B200080911A0282FB882780F991E089270E94F0
:104B3000B4137ACF80E0FBCFC8010E94A50CD82E19
:104B400082CF2D2D2F70C22E8D2D807F19F0C29413
:104B500090EFC9221123B9F0CC2069F080E2800FD8
:104B6000883010F0911009C08091C801C82AC09205
:104B7000C8010E94291B802F45C08091C701C82A07
:104B8000C092C701F6CF802F0E94C91ECC20E1F150
:104B9000005E083010F0911004C08C2D0E945C0C57
:104BA00006C0C0948091C701C822C092C7010E946C
:104BB000291B2AC03D2D3F70C32E8D2D807F803252
:104BC00019F0C29480EFC822992059F041E0941660
:104BD00009F4A1C0112309F4ADC0BB2009F45AC0E7
:104BE000CACF80911A0282FD51C0112309F447C037
:104BF000CC2039F08091C801C82AC092C8010E9417
:104C0000291B80E00E94EC1E282D2850330B2430F5
:104C1000310510F40E94E40E112379F08D2D807F70
:104C2000803619F436EF931641F080919601823068
:104C300009F025C283E080939601AA20A9F0809113
:104C4000BE0180FD11C0F701158286958695869577
:104C50000E94520DC7010E94BD228091BE0186951F
:104C6000869586950E942E0D20E0F70140815181A6
:104C700062817381848195810E94FE1071CD80E0F4
:104C80000E94C91ECC2009F4BFCF87CF112371F138
:104C9000B11004C08C2D0E94BF1EB6CF51E0B512DA
:104CA00011C00091CB018C2D8023C81609F4ACCF24
:104CB0000E94DC169093CA018093C901C02AC09259
:104CC000CB01A2CF85E0B8129FCF8C2D0E94BF1ED2
:104CD0008C2D0E94141B8091BB019C2D9823C9161A
:104CE00009F492CFC82AC092BB018ECFB1100AC07E
:104CF0008C2D0E94B81E8C2D0E94141B8C2D0E949E
:104D00006A0C82CF91E0B9127FCF8091C8018C21CB
:104D100009F47ACFEDCF112329F0E5E0EB1508F483
:104D200073CFB8CFF4E0FB1508F46ECF8C2D0E9442
:104D3000B81E6ACFBB20D1F329E392120DC13FEF19
:104D400047EE53E0315040405040E1F700C00000D2
:104D5000802F0E94C91E58CF8D2D837091F511119F
:104D600053CF402F429546954770440F440F802FF4
:104D70008F70042E01C0880F0A94EAF7202F20714B
:104D800004FF07C02FE030E001C0220F4A95EAF788
:104D900020953D2D369536953370323069F050F4BC
:104DA0004091CC01313029F0822B84230E945E0D8A
:104DB0002BCF842B822BFACF282B8091CC018227FA
:104DC000F5CF8695112311F08D2D8170882309F47C
:104DD0001BCF402F429546954770440F440F802FBC
:104DE0008F70042E01C0880F0A94EAF7202F2071DB
:104DF00004FF07C02FE030E001C0220F4A95EAF718
:104E000020953D2D369536953370323069F050F44B
:104E100040910103313029F0822B84230E940B0D35
:104E2000F3CE842B822BFACF282B8091010382278B
:104E3000F5CF9D2D9F70C92E112329F0892F0E9437
:104E4000520D802F28CF802F0E94B81E8C2D0E94DB
:104E50002E0DDACE802FE2EF9E16B1F1E91570F03B
:104E6000F0EF9F16D1F021EF921691F0112309F483
:104E700067C0B11080CE8D2D8F712AC033EF93168D
:104E800051F144EF9412F2CF80911A0282FD2FC0AB
:104E90008D2D8F711123D9F21BC0112381F054E0A5
:104EA0005B1508F4B1CE2D2D2F7181E090E001C08B
:104EB000880F2A95EAF7909101038927AFCF85E003
:104EC0008B1508F4A1CEEFCF8D2D8F711111BFCFAF
:104ED0000E94520D99CE80E0112309F49FCF81E00A
:104EE0009D2D9F7101C0880F9A95EAF797CF1123E6
:104EF000D1F08091BE018770843041F40E94630C30
:104F00008D2D8F710E942E0DA12C7ECE94E09B15CD
:104F1000D8F30D2D0F71802F0E94520D63E0802F6A
:104F20000E945520F1CFE4E0EB1530F40E94630CB1
:104F300064E08D2D8F71F4CF81E00E943B0DE4CFB2
:104F4000BB2079F0893341F4FFEF27EE33E0F150D5
:104F500020403040E1F7FACE8FE39CE90197F1F76A
:104F6000F5CE8D2D8F7173CFE0E1E00FE73008F0C3
:104F70005BC0F0E0EB52FA4C0C94D334112309F4EB
:104F800043CE8091B30191E0892705C01093B3010E
:104F90003BCE81E081278093B30136CE81E011239F
:104FA000D1F332CE111130CE1092B3012DCE112398
:104FB000C1F082E08093960181E08093B3010E946A
:104FC000DC1690939501809394012091BC0130915F
:104FD000BD01232B09F418CE9093BD018093BC0131
:104FE00013CE80919601823021F481E08093960166
:104FF0000BCE833009F008CE109296011092B301C7
:105000001092950110929401FFCD112341F08091EF
:10501000B201882309F4B5CF1092B201F5CD94E026
:105020009B1508F4F1CDADCF8091B201BB20D9F032
:10503000882341F08091B30191E089278093B301E7
:105040001092B201111197CDEFE3FCE93197F1F71E
:1050500000C00000802F0E94C91E87E0F701119256
:105060008A95E9F7D1CD882309F4CECD1111CCCDA5
:105070008091B30191E089278093B301CDCF813036
:1050800009F0DBCD109296011092B30110929501B8
:1050900010929401D2CD82E00837FCE71F0709F493
:1050A0003FCC03305CE7150709F433CD08F016CD8B
:1050B00001159CE7190709F41FCD01301C4709F0C1
:1050C000B3CC0E948D1E06312CE7120709F022CCCA
:1050D0008091C8018A7A91E009F490E0909393015D
:1050E00069E2811165E382E891E00E944C090E9427
:1050F000291B27CB06313CE7130709F019CC809117
:105100009301811105CC89E2E4E8F1E02AE831E07D
:105110009191891303C0DF0111971C922E173F074D
:10512000B9F7E5CFF801E851FC47E730F10508F49D
:10513000FECA10928A05C8019057839720F684E032
:1051400090E00E94573590931A0280931902F8015B
:10515000E150F047E232F10508F01DCBE452FA4C81
:105160000C94D334CF93DF938091BA01807F09F000
:105170004DC08091B901882309F448C0E0918705AA
:1051800050914E05C091B501D091B4016091B60126
:105190007091B70147E05E17C9F18E2F90E0E49F50
:1051A000F0011124E15BFA4F2481222391F1489F01
:1051B000F001499FF00D1124DF01A15BBA4F119658
:1051C0002C9111972C1325C02C912D1322C01596CC
:1051D0002C91159721111DC012962D913C91261BE3
:1051E000370B24363105A8F48091BA018F708061A5
:1051F0008093BA01EB5AFA4F80818F70806180836F
:1052000084EB91E00E94BD220E94740CDF91CF914B
:105210000895FC013196E770BECFA4E1B0E0E3E170
:10522000F9E20C9482348C0186E0F801DE011F96CD
:1052300001900D928A95E1F7F8018481E58094EB65
:10524000A92E91E0B92E9091B801911135C0882313
:1052500081F1EE2059F1C8010E94DB10F82E88235D
:1052600029F187E0F801D50101900D928A95E1F7C7
:105270001091B801113099F48091B4019091B50169
:105280000E94CE1092959F70963049F4863F39F077
:105290008091B30181278093B3011093B2010E94E2
:1052A000B2288F2D6496ECE00C949E34C8010E94C5
:1052B000BD22FF24F394F5CFD080C18082809380FB
:1052C000F090B9012091B6013091B701A401421BC1
:1052D000530BFF2009F4D9C04436510508F092C0A1
:1052E0008823F9F29091B5018091BA01282F207F8F
:1052F00009F056C0C91214C09091B401D91210C05F
:10530000E11048C08F7080618093BA0184EB91E016
:105310000E94BD228091BA01F8018683F12CC1CF91
:10532000E11038C06C2D8D2D0E94B0076C2D8D2D95
:105330000E94B007E82E8111F1CFDF86C88A8F85E1
:1053400098890E94CE10292F22952F70243058F46E
:105350009F70223088F0992399F0F8019681907F10
:1053600079F4FE2C9ECF2A5F2F70223068F0C8019E
:105370000E94BD22EF2CF5CF992311F0882389F3E9
:10538000805E883070F3F3CF803F58F3815F8330C5
:1053900070F7E7CF8091BA0181608093BA01BECFE8
:1053A000C91207C09091B401D91203C0EE2009F4CC
:1053B0008DC0C8010E94DB10882309F477CFEE204E
:1053C00009F474CF8091BA01803288F02091B40141
:1053D0003091B501398728879B868A869091B801DC
:1053E0009C871D868E87CE0108960E94BD2287E08D
:1053F000F801A4EBB1E001900D928A95E1F70E94CB
:10540000B22857CF9091BA01292F207F51F484EB15
:1054100091E00E94BD2287E0F50111928A95E9F79B
:105420007DCF882309F43DCF8091B5018C1110C048
:105430008091B401D8120CC0E1100AC09683C80153
:105440000E94BD2287E0F50111928A95E9F729CFE4
:10545000C8010E94DB10882309F428CFEE2009F44C
:1054600025CF8091BA01803210F22091B4013091A1
:10547000B5013A8329839C828B829091B8019D83E8
:105480001E828F83CE010196B0CF44365105D0F6EF
:10549000882309F40ECFFE2CEE2009F407CF80916B
:1054A000B5018C1120C08091B401D8121CC080912C
:1054B000BA0180FD0FC0982F907F61F08683903FE6
:1054C00031F0982F907F905F8F70892B8683C80171
:1054D0000E94BD2287E0F801A4EBB1E001900D929B
:1054E0008A95E1F7DECEC8010E94DB1081117FCFE3
:1054F0008091BA0181608093BA01C8010E94BD22E7
:10550000D0CEA6E0B0E0E7E8FAE20C948A340E943C
:10551000DC168C018091CD019091CE01801791070E
:1055200081F019821A820E94DC16682F49815A8103
:10553000792F80E090E00E946C201093CE010093C0
:10554000CD012696E4E00C94A6341F921FB61F925C
:1055500011248F939F93AF93BF9380913205811154
:1055600013C08091330590913405A0913505B09119
:1055700036054196A11DB11D8093330590933405E6
:10558000A0933505B0933605BF91AF919F918F9150
:105590001F901FBE1F901895CDB7DEB7AE970FB600
:1055A000F894DEBF0FBECDBF85B7806885BF85B7D5
:1055B000806885BF84B7877F84BF0FB6F894A895AD
:1055C00080916000886180936000109260000FBE3F
:1055D00080E890E00FB6F8948093610090936100AA
:1055E0000FBE85E39AE090938101809380010E9431
:1055F000CF070E9470088091E20084608093E200EF
:105600007894809144058823A1F01091E9001F70DF
:105610009091EC00892F817090FD80E8182B1092FA
:10562000E9008091E80083FD0E94851B1F701093A4
:10563000E90082E084BD93E095BD9AEF97BD809329
:105640006E00109207021092080210920902109246
:105650000A020E942311811102C00E94F90F0E94C8
:10566000BF0E8093300180913001882309F461C01E
:1056700010923C018DE180933D010E94BF0E81118B
:105680000E9406339091300181E0982790932E027A
:10569000282F291B20930C029091300180932F0218
:1056A0009091300180930B0280913001811106C0EE
:1056B00084EF80933A0185EF8093390120913A017C
:1056C000E22FE295EF70F0E061A12F7081E090E0B1
:1056D000AC0101C0440F2A95EAF7342F30953623E8
:1056E00031A322A1242B22A320913901E22FE2959C
:1056F000EF70F0E031A12F7001C0880F2A95EAF712
:10570000982F9095932391A392A1892B82A38FE840
:1057100091E00197F1F700C0000010912F0260E3C3
:1057200072E04AE351E089E3E82E81E0F82EFB01C4
:105730002CC08DE180933C019ECFDA012D91AD010B
:10574000822F82958F7090E0DC0190968C9190E092
:105750002F7002C0959587952A95E2F78170D70141
:105760009D917D01292F22952F7030E0D9019096CF
:105770002C9130E09F7002C0359527959A95E2F7FD
:1057800090E020FD92E0892B81938E2F861B81175C
:10579000A0F2809130018091300195E0811190E07C
:1057A0009093180285E0891B8093170205E511E0AC
:1057B000F80181918F018F3F11F00E94370AF1E0CB
:1057C0000A351F07A9F70AE511E0B0E6EB2EB1E0B4
:1057D000FB2ED8018D918D018F3F11F00E94370A69
:1057E000E016F106B1F78AE0E5E3F2E0DF01282FE9
:1057F0001D922A95E9F7EDE0F2E0DF011D928A950E
:10580000E9F70E94CB13811102C00E945F1582E06C
:1058100090E00E94493580931C0284E090E00E9451
:10582000573590931A02809319020E944719BFEFCF
:10583000E6E7F1E0B150E040F040E1F700C00000E1
:105840000E9447198091350280FF08C06FEF7FEFFB
:1058500090E080E00E948B350E942F0983E090E069
:105860000E9449350E945E0D0E94BF0E882309F4F4
:1058700038C183E08093240580FD35C180E88093A2
:1058800000030E94C0316BE070E08DE391E00E9464
:1058900018128823E9F18091240565E070E081FD0C
:1058A00024C188E391E00E941812882389F16DE0F9
:1058B00070E086E291E00E941812882349F10E946C
:1058C0004009605A75418F4F9F4F60932805709330
:1058D000290580932A0590932B05E4E2F3E080E00C
:1058E00092E0DF019C011D9221503040E1F7F093DE
:1058F0000303E09302038FEF9FEF909327058093BC
:10590000260581E080932F0580932C0510922505B4
:1059100080911B02811178C00E94CB13811104C0B9
:105920000E945F150E94971388E090E00E94513515
:105930004B015C0184E290E00E944935282F30E061
:1059400040E050E060E070E080E090E000E20E9423
:10595000E034282939294A295B2920938B05309383
:105960008C0540938D0550938E0560938F05709341
:1059700090058093910590939205809149028360F0
:10598000809349022E7F89F50E94971388E090E06A
:105990000E9451356B017C0184E290E00E94493500
:1059A000282F30E040E050E060E070E080E090E0E0
:1059B0000E94E034B22FA32FF42FE52F5B01970153
:1059C0008601BC29A12BFE29E32BB0938B05A09364
:1059D0008C05F0938D05E0938E0560938F05B09252
:1059E000900580939105909392050E9489090E94E9
:1059F000820980918B0580FF04C060E086950E943B
:105A0000D91881E080931B020E94BF0E811102C051
:105A10000E94093381E391E0909331058093300532
:105A2000FFE36F2EF2E07F2EA2E0AA2EB12C809130
:105A3000440500E112E1853009F492C00E94471943
:105A40000DE112E0E5E3EE2EE2E0FE2E27E232E089
:105A5000D701F80191918D912E173F0709F48AC063
:105A60009817C1F30E94BF0E382E75E3C72E72E05F
:105A7000D72E912CF60181906F01D8012D908D01C8
:105A8000281431F12824512C44244394822D84215C
:105A9000B9F03320A9F059A69AA60E94DC169CA75B
:105AA0008BA7B1E0BDA791E0882D842109F490E097
:105AB0009EA749A55AA56BA57CA58DA50E946C2023
:105AC0005394440CE6E05E12E1CFF80131978082F6
:105AD0009394FAE09F12CECF0E94F50E5524539472
